:100000000C945A030C9482030C9482030C94820384
:100010000C9482030C9482030C9482030C9482034C
:100020000C9482030C9482030C9482030C9482033C
:100030000C9482030C9482030C9482030C9482032C
:100040000C94B20D0C9482030C941E100C94F80FB7
:100050000C9482030C9482030C9482030C9482030C
:100060000C94FC0D0C94820300000000003E5B4FDA
:100070005B3E3E6B4F6B3E1C3E7C3E1C183C7E3C08
:10008000181C577D571C1C5E7F5E1C00183C180016
:10009000FFE7C3E7FF0018241800FFE7DBE7FF30A6
:1000A000483A060E2629792926407F050507407F14
:1000B00005253F5A3CE73C5A7F3E1C1C08081C1C87
:1000C0003E7F14227F22145F5F005F5F06097F017D
:1000D0007F006689956A606060606094A2FFA29468
:1000E00008047E040810207E201008082A1C080836
:1000F0001C2A08081E101010100C1E0C1E0C303884
:100100003E3830060E3E0E06000000000000005F84
:1001100000000007000700147F147F14242A7F2AA0
:100120001223130864623649562050000807030062
:10013000001C2241000041221C002A1C7F1C2A08AE
:10014000083E080800807030000808080808000011
:1001500060600020100804023E5149453E00427F85
:10016000400072494949462141494D331814127FD4
:100170001027454545393C4A494931412111090774
:100180003649494936464949291E000014000000F5
:1001900040340000000814224114141414140041C7
:1001A00022140802015909063E415D594E7C121184
:1001B000127C7F494949363E414141227F414141BC
:1001C0003E7F494949417F090909013E4141517337
:1001D0007F0808087F00417F41002040413F017FA8
:1001E000081422417F404040407F021C027F7F0470
:1001F00008107F3E4141413E7F090909063E4151B9
:10020000215E7F09192946264949493203017F01A8
:10021000033F4040403F1F2040201F3F4038403FA9
:10022000631408146303047804036159494D4300BF
:100230007F4141410204081020004141417F0402F6
:10024000010204404040404000030708002054548D
:1002500078407F284444383844444428384444286B
:100260007F385454541800087E090218A4A49C78BE
:100270007F0804047800447D40002040403D007F1A
:100280001028440000417F40007C047804787C08FA
:100290000404783844444438FC18242418182424CE
:1002A00018FC7C08040408485454542404043F44B3
:1002B000243C4040207C1C2040201C3C4030403CE2
:1002C00044281028444C9090907C4464544C440042
:1002D00008364100000077000000413608000201A6
:1002E0000204023C2623263C1EA1A161123A404092
:1002F000207A38545455592155557941225454780F
:1003000042215554784020545579400C1E527212A7
:100310003955555559395454545939555454580030
:1003200000457C410002457D420001457C407D1234
:1003300011127DF0282528F07C5455450020545496
:100340007C547C0A097F4932494949323A44444441
:100350003A324A4848303A4141217A3A424020787C
:10036000009DA0A07D3D4242423D3D4040403D3C7D
:1003700024FF2424487E4943662B2FFC2F2BFF09A2
:1003800029F620C0887E0903205454794100004496
:100390007D413048484A32384040227A007A0A0A81
:1003A000727D0D19317D2629292F282629292926F4
:1003B00030484D4020380808080808080808382F39
:1003C00010C8ACBA2F102834FA00007B00000814C3
:1003D0002A142222142A14085500550055AA55AA99
:1003E00055AAFF55FF55FF000000FF00101010FF39
:1003F00000141414FF001010FF00FF1010F010F094
:10040000141414FC001414F700FF0000FF00FF1484
:1004100014F404FC141417101F10101F101F1414D0
:10042000141F00101010F0000000001F101010101A
:100430001F10101010F010000000FF10101010100E
:1004400010101010FF10000000FF140000FF00FF4C
:1004500000001F10170000FC04F4141417101714E8
:1004600014F404F40000FF00F7141414141414140A
:10047000F700F7141414171410101F101F1414147D
:10048000F4141010F010F000001F101F0000001FE7
:1004900014000000FC140000F010F01010FF10FF1A
:1004A000141414FF141010101F00000000F010FFAF
:1004B000FFFFFFFFF0F0F0F0F0FFFFFF0000000093
:1004C00000FFFF0F0F0F0F0F3844443844FC4A4A17
:1004D0004A347E02020606027E027E0263554941CC
:1004E000633844443C04407E201E2006027E020203
:1004F00099A5E7A5991C2A492A1C4C7201724C3017
:100500004A4D4D303048784830BC625A463D3E49ED
:100510004949007E0101017E2A2A2A2A2A44445F91
:10052000444440514A444040444A51400000FF0185
:1005300003E080FF000008086B6B08361236243693
:10054000060F090F060000181800000010100030F8
:1005500040FF0101001F01011E00191D1712003C80
:100560003C3C3C00000000000000000800020100CC
:10057000000304070000000000000000000000006D
:10058000250028002B0000000000240027002A007E
:100590000404040404040404020202020202030329
:1005A0000303030301020408102040800102040831
:1005B000102001020408102000407A10F35A00A015
:1005C000724E18090010A5D4E80000E8764817001C
:1005D00000E40B54020000CA9A3B000000E1F5055C
:1005E000000080969800000040420F000000A086A6
:1005F00001000000102700000000E80300000000D8
:100600006400000000000A0000000000010000007B
:1006100000002C76D888DC674F0823DFC1DFAE5995
:10062000E1B1B796E5E3E453C63AE651997696E828
:10063000E6C28426EB898C9B62ED407C6FFCEFBCAC
:100640009C9F40F2BAA56FA5F490055A2AF75C93D7
:100650006B6CF9676DC11BFCE0E40D47FEF520E60D
:10066000B500D0ED902E0300943577050080841EF0
:10067000080000204E0A000000C80C333333330F4B
:10068000986E12831141EF8D2114893BE65516CFE8
:10069000FEE6DB18D1844B381BF77C1D901DA4BBF4
:1006A000E424203284725E228100C9F124ECA1E5A9
:1006B0003D27791711241FBECFEFD8E0DEBFCDBF95
:1006C00013E0A0E0B1E0ECE5FEE302C005900D927E
:1006D000A639B107D9F725E0A6E9B3E001C01D921C
:1006E000A132B207E1F713E0CAE5D3E004C02197D5
:1006F000FE010E94DE17C935D107C9F70E94C91251
:100700000C942C1F0C9400003FB7F8948091DE03EA
:100710009091DF03A091E003B091E10326B5A89B7F
:1007200005C02F3F19F00196A11DB11D3FBFBA2F83
:10073000A92F982F8827820F911DA11DB11DBC01E3
:10074000CD0142E0660F771F881F991F4A95D1F7A8
:1007500008950895FC016370658B848195812681DD
:100760003781613039F0633029F091878087338792
:1007700022870895318720879387828708952F9253
:100780003F924F925F926F927F928F929F92AF9221
:10079000BF92CF92DF92EF92FF920F931F93CF936E
:1007A000DF93CDB7DEB76C970FB6F894DEBF0FBE00
:1007B000CDBF9C8F8B8F1B012A0118870F83FE8270
:1007C000ED82CA82DC0158964D915C915997411592
:1007D000510509F0B2C018968D919C911997681730
:1007E00079070CF096C11A968D919C911B9748162B
:1007F00059060CF08EC1AC2CB12CCB01B6E0CB9ECF
:10080000800D911D1124181619060CF082C1C50126
:1008100033E0880F991F3A95E1F7840D951D18165E
:1008200019060CF076C1AB8DBC8D57968C91811159
:1008300003C0203B08F02F5FAB8DBC8DED91FC9188
:1008400011970680F781E02DCD012A8F09952A8D19
:10085000B5E02B9F90011124610141011B82F90138
:10086000E219F309FA87E9879201285F3F4F3C8735
:100870002B873B81353049F0E985FA85E80DF91D74
:10088000E859FF4F4491498301C019823201120196
:10089000598150FF13C0AB8DBC8DED91FC91BA8195
:1008A000B13031F40084F185E02D2F81388519C0F5
:1008B0000284F385E02DEF80F8841EC0ED81FE8177
:1008C0002F813885E217F307F1F0AB8DBC8DED91E8
:1008D000FC91BA81B13059F40084F185E02D2D816D
:1008E0003E81A301B4018B8D9C8D09950CC00284BF
:1008F000F385E02DED80FE8085019501A101B60113
:100900008B8D9C8D0995E981E695E983FFEF6F1A40
:100910007F0A2A0C3B1C2B853C856216730609F066
:10092000B7CF3B813F5F3B834FEF841A940ACA0CD9
:10093000DB1C363009F09DCFCAC0FA013496949181
:10094000329765917491291BCB01B7E02B9F800DE5
:10095000911D1124FA01259134913A8B298BFC01C8
:1009600065907490FC01329634913D8331964491A8
:100970004B873296C490319614915A81523058F078
:100980008C2C0C2C000C9908812F012E000C990B3B
:100990009C838B8304C01C821B82812C912CAB8D89
:1009A000BC8DED91FC9111970680F781E02DCD0172
:1009B0000995BA81AB2EB12C8A9CC0018B9C900DFD
:1009C0009A9C900D1124FC01E20DF31DF88BEF872A
:1009D0001982912C812CEC2DCC0CFF0B91012E0F48
:1009E0003F1F3A87298761013D81C30ED11CA601B3
:1009F0004E0F5F1F5F8B4E8BC201810F911D17FD44
:100A00009A95998F888F5B85851608F060C0882D30
:100A100090E04B815C81480F591F4A9D90014B9D8E
:100A2000300D5A9D300D1124D901A40DB51DBE877E
:100A3000AD87C984DA842F843888B981E985BE1BE3
:100A4000BB8B288D398D280F391F3D8B2C8B8B89C3
:100A50008C0D2E893F89C216D30699F1877041F417
:100A6000C3010196E989FA89E60DF71D94903C01CE
:100A700097FE20C0AB8DBC8DED91FC91BA81B13059
:100A800061F40084F185E02D2F8138854C895D89E2
:100A9000B6018B8D9C8D09950DC00284F385E02DE8
:100AA000EF80F884850195014D855E85B1018B8DC0
:100AB0009C8D0995990CEFEFCE1ADE0A2A0C3B1C8F
:100AC000C6CF39814D81340F398383949CCFAB8D50
:100AD000BC8DED91FC9111970288F389E02DCD0139
:100AE0006C960FB6F894DEBF0FBECDBFDF91CF91ED
:100AF0001F910F91FF90EF90DF90CF90BF90AF903C
:100B00009F908F907F906F905F904F903F902F902D
:100B100009946C960FB6F894DEBF0FBECDBFDF917F
:100B2000CF911F910F91FF90EF90DF90CF90BF90EA
:100B3000AF909F908F907F906F905F904F903F907D
:100B40002F900895AF92BF92CF92EF92FF920F93A2
:100B50001F93CF93DF93EC01262F888D998D0097FB
:100B600009F042C06A3069F42C898E859F8538E08F
:100B7000239F800D911D11249F878E871D861C86C3
:100B8000ACC06D3009F4A9C08E898823C1F03C89BE
:100B90008C859D8546E0349F800D911D11244885EC
:100BA0005985841795075CF01D861C868E859F8568
:100BB000E8E03E9F800D911D11249F878E87EA8873
:100BC000FB88088919894E855F856C857D85CC8871
:100BD000CE010E94BF032C898C859D85F6E02F9F56
:100BE000800D911D112441C06A3079F41D861C8648
:100BF0002C89FC013696E4918E859F852E9F800D71
:100C0000911D11249F878E8768C06D3009F465C0DF
:100C1000AC014C5F5F4FFA013491631708F45DC07B
:100C20003196E491E61708F458C0FA014491362F42
:100C3000341BFC013296A590B490F7E03F9FA00CC6
:100C4000B11C1124F501329634913196E49133238D
:100C500011F0E1110DC0F5013496E4912C898C85D9
:100C60009D85E29F800D911D11249D878C8735C045
:100C7000F501359644915E89552311F16C89E32F76
:100C8000F0E0E40FF11D47FDFA956E9FD0016F9FD4
:100C9000B00D11244C855D854A0F5B1FE885F985F1
:100CA0004E175F076CF01D861C86FC013696E4919A
:100CB0008E859F856E9F800D911D11249F878E8745
:100CC000EA88FB88088919894E855F856C857D8552
:100CD000CC88CE010E94BF03BECF81E090E0DF91BF
:100CE000CF911F910F91FF90EF90CF90BF90AF9059
:100CF00008956F927F928F929F92AF92BF92CF9200
:100D0000DF92EF92FF920F931F93CF93DF93EC014B
:100D10004B015A0169013801E881F9810680F781A8
:100D2000E02D0995E881F9810684F785E02D87019A
:100D30009601A501B401CE010995E881F981A501CB
:100D4000460D571D415051090684F785E02D960147
:100D5000B401CE010995E881F9810484F585E02D7F
:100D60009301A501B401CE010995E881F981C80C70
:100D7000D91CB601615071090484F585E02D9301F9
:100D8000A501CE010995E881F9810288F389E02D5A
:100D9000CE01DF91CF911F910F91FF90EF90DF90E7
:100DA000CF90BF90AF909F908F907F906F9009945D
:100DB000AF92BF92CF92DF92EF92FF920F931F9369
:100DC000CF93DF9300D000D0CDB7DEB75C016901CF
:100DD000DC01ED91FC916217730781F4008CF18DB9
:100DE000E02D041715071CF0CA01980102C09A01F2
:100DF000C801281B390B2F5F3F4F14C04017510704
:100E000019F59B016C157D050CF49601CB01C616F6
:100E1000D7060CF4C601281B390B2F5F3F4F028CFD
:100E2000F38DE02D8701C50109950F900F900F906C
:100E30000F90DF91CF911F910F91FF90EF90DF9076
:100E4000CF90BF90AF9008950680F781E02D4B833F
:100E50005C8369837A830995D501ED91FC910088C3
:100E6000F189E02D96014B815C8169817A81C50110
:100E70000995D501ED91FC910288F389E02DC5011A
:100E80000F900F900F900F90DF91CF911F910F91C6
:100E9000FF90EF90DF90CF90BF90AF900994EF92CA
:100EA000FF920F931F93DC01ED91FC9111971A961D
:100EB0000D911C911B9718962D913C911997048CBC
:100EC000F58DE02D7B0140E050E060E070E0099599
:100ED0001F910F91FF90EF9008954F925F926F9244
:100EE0007F928F929F92AF92BF92CF92DF92EF92BA
:100EF000FF920F931F93CF93DF9300D0CDB7DEB750
:100F00006C015A0139014801DC01ED91FC91068028
:100F1000F781E02D69837A8309956981462E7A816C
:100F2000572E640C751CD601ED91FC9146145704A4
:100F30006CF40484F585E02D87019401A501B201CC
:100F4000C6010995BFEF4B1A5B0AEDCF0288F38902
:100F5000E02DC6010F900F90DF91CF911F910F915F
:100F6000FF90EF90DF90CF90BF90AF909F908F90C9
:100F70007F906F905F904F900994AF92BF92CF9205
:100F8000DF92EF92FF920F931F93CF93DF9300D0E6
:100F900000D0CDB7DEB75C016901DC01ED91FC91B9
:100FA0000680F781E02D4B835C8369837A83099502
:100FB000D501ED91FC9169817A819B012C0D3D1D3C
:100FC000215031090088F189E02D78014B815C8145
:100FD0008A01C5010995D501ED91FC910288F3893B
:100FE000E02DC5010F900F900F900F90DF91CF91E2
:100FF0001F910F91FF90EF90DF90CF90BF90AF9037
:101000000994AF92BF92CF92DF92EF92FF920F932B
:101010001F93CF93DF9300D000D0CDB7DEB75C0134
:101020006901DC01ED91FC910680F781E02D4B8395
:101030005C8369837A830995D501ED91FC914B819D
:101040005C81C40ED51EB1E0CB1AD1080088F189AD
:10105000E02D7801860169817A819B01C50109959E
:10106000D501ED91FC910288F389E02DC5010F9027
:101070000F900F900F90DF91CF911F910F91FF90E4
:10108000EF90DF90CF90BF90AF9009940895EF92CA
:10109000FF920F931F93DC01ED91FC91048CF58D71
:1010A000E02D09951F910F91FF90EF9008950F93F8
:1010B0001F93DC01ED91FC91028CF38DE02D0995DD
:1010C0001F910F9108950F931F93DC01ED91FC91F7
:1010D000008CF18DE02D09951F910F910895DC0191
:1010E000ED91FC910480F581E02D099408952F92F3
:1010F0003F924F925F926F927F928F929F92AF92A8
:10110000BF92CF92DF92EF92FF920F931F93CF93F4
:10111000DF9300D01F92CDB7DEB74C017B836A838B
:101120006A01590117019801241B350B37FF03C0D1
:10113000319521953109C5014A815B81841B950B4D
:1011400097FF03C091958195910951E059838217CA
:10115000930714F019820BC09A2D8B2D5801092F7B
:10116000182F9A818B81DB82CA82C92ED82E8A8160
:101170009B81A816B9065CF49C2D8D2D6801092F62
:10118000182F9A818B81BB82AA82A92EB82E2501A5
:10119000AA81BB814A1A5B0A38016C187D0877FE68
:1011A00003C0719461947108720157FE03C0BFEFD0
:1011B000EB1AFB0AF594E794C016D1061CF00FEF6A
:1011C0001FEF1FC001E010E01CC0D401ED91FC91A5
:1011D000B9810084F185E02D9101BB23C1F04A81E2
:1011E0005B81B601C4010995E618F708F7FE04C053
:1011F000C00ED11EE40CF51CEA81FB813196FB8305
:10120000EA834A815B81A416B506FCF604C0A601F8
:101210006A817B81E7CF0F900F900F90DF91CF9184
:101220001F910F91FF90EF90DF90CF90BF90AF9004
:101230009F908F907F906F905F904F903F902F90F6
:1012400008950F931F93CF93DF93DC0155968C91F4
:101250005597823071F0833009F1813009F08CC0EC
:101260001496ED91FC911597E41BF50BE21BF30B23
:1012700020C01496ED91FC911597CF01861B970B1A
:10128000BC01615071091696ED91FC911797CF0141
:10129000841B950BAC01421B530B6EC01696ED914F
:1012A000FC911797CF01861B970BBC016150710908
:1012B000FA0177FD1BC116968D919C9117976817BF
:1012C00079070CF013C1F7FF04C02E0F3F1FE0E0B9
:1012D000F0E014968D919C911597AF01420F531F2A
:1012E000841795071CF49C012E1B3F0B1216130646
:1012F0000CF0FCC0CB0177FD079643E095958795F0
:101300004A95E1F79695982F882797958795E80F46
:10131000F91FE050FF4F6770772781E090E001C030
:10132000880F6A95EAF7482F0130110541F088F0DF
:101330000230110509F0DAC02E0F3F1F15C02E0F25
:101340003F1FE217F30709F4D1C08081842B8193FA
:10135000F8CF80952E0F3F1FE217F30709F4C6C0A0
:10136000908198239193F8CFE217F30709F4BEC058
:10137000808184278193F8CF77FDB8C014968D9132
:101380009C911597681779070CF0B0C057FF04C0FF
:10139000240F351F40E050E016968D919C911797D1
:1013A000FA01E20FF31F8E179F071CF49C01241B08
:1013B000350B121613060CF099C0A22F842F8695B8
:1013C0008695869590E8899F600D711D1124FB011B
:1013D000E050FF4F4770A9F198E0941B492F50E06F
:1013E000EA01C25FDC4F8881291790F4421B510942
:1013F0002FEF30E002C0359527954A95E2F782231A
:101400000130110541F068F00230110589F06EC01D
:101410000130110519F42081822B0CC00130110517
:1014200020F480952081822305C00230110531F41B
:10143000208182278083A91708F458C0A91BE0588F
:10144000FF4FA83048F10230110559F4EF018A2FFF
:10145000988190959883C058DF4F88508830C0F7A6
:1014600030C081E00130110509F080E08195EF0185
:101470009A2F8883C058DF4F98509830D0F788EF64
:101480008A0F86958695869590E8899FE00DF11DD7
:101490001124E058FF4FA770AA2341F1B0E0AA5FE2
:1014A000BC4F8C910130110529F038F00230110544
:1014B000D1F01CC09081892B18C080959081892320
:1014C00014C088EF8A0F86958695869590E8899F47
:1014D000E00DF11D1124E058FF4FA77039F0B0E086
:1014E000AA5FBC4F8C91908189278083DF91CF9137
:1014F0001F910F9108950F931F93CF93DF93DC01FA
:10150000FB0155968C915597823081F0833019F10B
:10151000813051F514968D919C911597BC01641BF7
:10152000750BAB0141505109BF0181C014966D91FB
:101530007C911597CB018E1B9F0BFC0116968D910C
:101540009C911797BC01641B750BAB01415051096D
:10155000E21BF30B09C016966D917C9117976E1BD9
:101560007F0B621B730B63C057FD1CC116968D91D8
:101570009C911797481759070CF014C1F7FF04C046
:101580002E0F3F1FE0E0F0E014968D919C9115978F
:10159000BF01620F731F861797071CF49C012E1B57
:1015A0003F0B121613060CF0FDC0CA0157FD07963B
:1015B00063E0959587956A95E1F79695982F88272A
:1015C00097958795E80FF91FE050FF4F4770552713
:1015D00081E090E001C0880F4A95EAF7482F01307A
:1015E000110541F088F00230110509F0DBC02E0F23
:1015F0003F1F15C02E0F3F1FE217F30709F4D2C09B
:101600008081842B8193F8CF80952E0F3F1FE217A6
:10161000F30709F4C7C0908198239193F8CFE2179C
:10162000F30709F4BFC0808184278193F8CF57FD69
:10163000B9C014968D919C911597481759070CF0D5
:10164000B1C077FF04C0260F371F60E070E0169628
:101650008D919C911797FB01E20FF31F8E179F0747
:101660001CF49C01261B370B121613060CF09AC0B3
:10167000A22F862F86958695869590E8899F400DA6
:10168000511D1124FA01E050FF4F6770A9F198E055
:10169000961B492F50E0EA01C25FDC4F8881291771
:1016A00090F4421B51092FEF30E002C03595279589
:1016B0004A95E2F782230130110541F068F00230CB
:1016C000110589F06FC00130110519F42081822BBA
:1016D0000CC00130110520F480952081822305C0C3
:1016E0000230110531F4208182278083A91708F484
:1016F00059C0A91BE058FF4FA83048F1023011052E
:1017000059F4EF018A2F988190959883C058DF4F44
:1017100088508830C0F731C081E00130110509F0F0
:1017200080E08195EF019A2F8883C058DF4F985051
:101730009830D0F788EF8A0F86958695869560E871
:10174000869FE00DF11D1124E058FF4FA770AA23DA
:1017500049F1B0E0AA5FBC4F8C910130110529F02E
:1017600038F002301105D9F01DC09081892B03C0DB
:10177000809590818923808315C088EF8A0F869594
:101780008695869570E8879FE00DF11D1124E0583D
:10179000FF4FA77039F0B0E0AA5FBC4F8C919081E9
:1017A0008927E9CFDF91CF911F910F910895FC0117
:1017B00077FD9AC080859185681779070CF094C0F1
:1017C00057FD92C082859385481759070CF08CC04D
:1017D0008589823009F07CC084819581DC01A61B5B
:1017E000B70BBD016150710986819781FC01E41B33
:1017F000F50BAF01415051090AC0813041F4848199
:101800009581841B950BAB01BC016150710921309E
:10181000310529F008F122303105E1F10895FA018E
:1018200057FD3796A3E0F595E795AA95E1F7F6956C
:10183000FE2FEE27F795E7956E0F7F1FFB01E05017
:10184000FF4F4770552781E090E001C0880F4A950F
:10185000EAF79081892B3AC0FA0157FD379623E0C9
:10186000F595E7952A95E1F7F695FE2FEE27F79582
:10187000E7956E0F7F1FFB01E050FF4F4770552724
:1018800081E090E001C0880F4A95EAF78095908149
:1018900089231CC0FA0157FD379683E0F595E7953B
:1018A0008A95E1F7F695FE2FEE27F795E7956E0FEF
:1018B0007F1FFB01E050FF4F4770552781E090E00C
:1018C00001C0880F4A95EAF790818927808308959F
:1018D000833009F092CF86819781861B970BBA01DE
:1018E000AC014150510993CF089585ED8093BC0020
:1018F0008091BC0084FDFCCF10922104089540919A
:10190000B803262F30E0240F311D21323105DCF4DD
:10191000209121042430C9F4FC0180E090E0861776
:1019200058F43091B8032191DC01AA56BC4FA30FA3
:10193000B11D2C930196F3CF8091B803680F60938B
:10194000B80380E0089581E0089582E00895089545
:1019500081E090E03091E3032091E203321710F42C
:1019600080E090E091958195910908958091E3033D
:101970009091E203891730F48F5F8093E30380E056
:1019800090E008958FEF9FEF08958091E20390E03B
:101990002091E303821B91090895CF92DF92EF9289
:1019A000FF920F931F93CF93DF937C01262F972FE6
:1019B0008A0180912204882391F0C62FD72F6E01CF
:1019C000C40ED51ECC15DD0571F06991D701ED91DE
:1019D000FC910190F081E02DC7010995F3CF642FB0
:1019E000822F0E947F0CC801DF91CF911F910F9130
:1019F000FF90EF90DF90CF900895CF93DF931F92E9
:101A0000CDB7DEB76983209122042223D1F0209143
:101A10004504203240F021E030E0FC013383228392
:101A200080E090E015C080912304E82FF0E0EC5DA9
:101A3000FB4F998190838F5F8093230480934504AB
:101A400005C061E0CE0101960E947F0C81E090E02C
:101A50000F90DF91CF91089590E0FC01E859FA4F83
:101A60003491FC01EC55FA4F2491FC01E057FA4FF8
:101A7000E491EE2309F43BC0332339F1333091F084
:101A800038F43130A9F0323001F584B58F7D12C0C1
:101A9000373091F03830A1F03430B9F480918000C3
:101AA0008F7D03C0809180008F77809380000DC070
:101AB00084B58F7784BD09C08091B0008F7703C053
:101AC0008091B0008F7D8093B000F0E0EE0FFF1F9B
:101AD000E458FA4FA591B4918FB7F894EC91611145
:101AE00003C020952E2301C02E2B2C938FBF089569
:101AF0008F929F92AF92BF92CF92DF92EF92FF921E
:101B00006B017C010E9484034B015C01C114D10470
:101B1000E104F104F1F00E948403DC01CB01881997
:101B20009909AA09BB09883E9340A105B10570F344
:101B300021E0C21AD108E108F10888EE880E83E09E
:101B4000981EA11CB11CC114D104E104F10419F7C1
:101B5000DDCFFF90EF90DF90CF90BF90AF909F9040
:101B60008F9008951F920F920FB60F9211242F930A
:101B70003F938F939F93AF93BF938091E403909192
:101B8000E503A091E603B091E7033091DD0323E084
:101B9000230F2D3720F40196A11DB11D05C026E8A5
:101BA000230F0296A11DB11D2093DD038093E40352
:101BB0009093E503A093E603B093E7038091DE03DF
:101BC0009091DF03A091E003B091E1030196A11D84
:101BD000B11D8093DE039093DF03A093E003B093E5
:101BE000E103BF91AF919F918F913F912F910F9002
:101BF0000FBE0F901F9018951F920F920FB60F9265
:101C000011242F933F934F935F936F937F938F9301
:101C10009F93AF93BF93EF93FF938091B900887F19
:101C2000803609F49CC068F5883209F45BC090F4F2
:101C3000803109F454C038F4882309F4F6C08830A0
:101C400009F44DC0F6C0883109F44CC0803209F463
:101C50005DC0EFC0803409F468C048F4803309F4F3
:101C600055C0883309F0E5C080931F04D8C0803583
:101C700009F44FC0883509F45DC0883409F0D9C033
:101C8000D6C0883909F4C7C0A8F4883709F467C0FA
:101C900038F4883609F463C0803709F460C0C9C0DD
:101CA000883809F4B8C0803909F45FC0803809F079
:101CB000C0C05BC0803B09F486C038F4803A09F4A8
:101CC00066C0883A09F47FC0B4C0803C09F4A7C05C
:101CD000883C09F4A4C0883B09F48AC0AAC080915A
:101CE000FC0310C090911E0480911D04981770F59C
:101CF000E0911E0481E08E0F80931E04F0E0E3501B
:101D0000FC4F80818093BB0085EC86C080931F04CC
:101D10008EC0E0911E0481E08E0F80931E0480919E
:101D2000BB00F0E0E350FC4F808390911E04809153
:101D30001D046EC0E0911E0481E08E0F80931E048E
:101D40008091BB00F0E0E350FC4F80838091200441
:101D500081116DC081E08093FB0384EA61C083E060
:101D6000809321041092DC03CFCF8091DC0380327A
:101D700008F051C0E091DC0381E08E0F8093DC031A
:101D80008091BB00F0E0E454FC4F8083BDCF85EC34
:101D90008093BC00109221048091DC03803230F4E7
:101DA000E091DC03F0E0E454FC4F10826091DC032E
:101DB00070E0E091BA03F091BB038CEB93E00995DE
:101DC0001092DC0336C084E0809321041092B903A2
:101DD0001092B803E091B603F091B7030995809192
:101DE000B803811105C081E08093B8031092960377
:101DF000E091B90381E08E0F8093B903F0E0EA56D9
:101E0000FC4F80818093BB009091B9038091B8030F
:101E1000981708F479CF85E88093BC000AC085EC58
:101E20008093BC001092210404C010921F040E94F1
:101E3000750CFF91EF91BF91AF919F918F917F9121
:101E40006F915F914F913F912F910F900FBE0F9027
:101E50001F901895FC01918D828D981761F0828DED
:101E6000DF01A80FB11D5D968C91928D9F5F9F73CE
:101E7000928F90E008958FEF9FEF0895FC01918D70
:101E8000828D981731F0828DE80FF11D858D90E0DD
:101E900008958FEF9FEF0895FC01918D228D892F7A
:101EA00090E0805C9F4F821B91098F739927089562
:101EB00086E494E00E944C0F21E0892B09F420E095
:101EC000822F0895FC01848DDF01A80FB11DA35A54
:101ED000BF4F2C91848D90E001968F739927848F4A
:101EE000A689B7892C93A089B1898C9180648C9341
:101EF000938D848D981306C00288F389E02D80812C
:101F00008F7D80830895EF92FF920F931F93CF935D
:101F1000DF93EC0181E0888F9B8D8C8D981305C039
:101F2000E889F989808185FD24C0F62E0B8D10E0AB
:101F30000F5F1F4F0F731127E02E8C8DE8120CC01E
:101F40000FB607FCFACFE889F989808185FFF5CFC4
:101F5000CE010E94620FF1CF8B8DFE01E80FF11DC3
:101F6000E35AFF4FF0820B8FEA89FB898081806200
:101F700007C0EE89FF896083E889F98980818064E0
:101F8000808381E090E0DF91CF911F910F91FF90CE
:101F9000EF900895CF93DF93EC01888D8823C9F0EB
:101FA000EA89FB89808185FD05C0A889B9898C9162
:101FB00086FD0FC00FB607FCF5CF808185FFF2CFFD
:101FC000A889B9898C9185FFEDCFCE010E94620F5F
:101FD000E7CFDF91CF91089580E090E0892B29F041
:101FE0000E94580F81110C94000008950E94F51A68
:101FF0001F920F920FB60F9211242F933F934F937E
:102000005F936F937F938F939F93AF93BF93EF9360
:10201000FF9386E494E00E94620FFF91EF91BF91DD
:10202000AF919F918F917F916F915F914F913F9170
:102030002F910F900FBE0F901F9018951F920F9227
:102040000FB60F9211242F938F939F93EF93FF93CB
:10205000E0915604F09157048081E0915C04F09186
:102060005D0482FD12C0908180915F048F5F8F7349
:1020700020916004821751F0E0915F04F0E0EA5B88
:10208000FB4F958F80935F0401C08081FF91EF919A
:102090009F918F912F910F900FBE0F901F901895C9
:1020A000CF92DF92EF92FF920F931F93CF93DF9324
:1020B0006C017A018B01C0E0D0E0CE15DF0589F01C
:1020C000D8016D918D01D601ED91FC910190F081C7
:1020D000E02DC6010995892B11F47E0102C02196DD
:1020E000ECCFC701DF91CF911F910F91FF90EF903F
:1020F000DF90CF9008950F931F93CF93DF93EC0160
:1021000088819981009729F02A813B81261737071A
:1021100088F48B016F5F7F4F0E942B1A009761F04C
:10212000998388831B830A832C813D81232B11F49F
:10213000FC01108281E001C080E0DF91CF911F910E
:102140000F9108952091450490914404213208F0A4
:102150004AC0809121048111FCCF32E030932104E8
:1021600031E0309320043FEF30931F0410921E049F
:1021700020931D04A4E2B4E04DEF53E0FA013E2F9A
:10218000341B321718F43D913193F9CF1092FC03B0
:102190002091FC03990F922B9093FC039091FB03E9
:1021A000913061F41092FB039091FC039093BB007B
:1021B0009091BC0093FDF8CF95EC01C095EE909303
:1021C000BC00909121049230E1F390911F049F3F55
:1021D00079F080911F04803241F080911F04803398
:1021E00031F084E005C081E003C082E001C083E0FB
:1021F00010922304109245041092220408959091A5
:102200001005992339F08EBD00000DB407FEFDCFF7
:102210008EB5089528E030E040E8E0911305F09194
:102220001405508190911A05909595239083E09123
:102230001105F091120590911905542F582319F0AA
:102240005081952B03C05081909595239083E09108
:102250001305F0911405508190911A05952B9083E8
:10226000469521503109C9F60895CF93C82F809122
:102270000B058F3F59F1E0911505F091160580810E
:1022800090911B05982B9083E0911705F09118050C
:10229000208190911C05909592239083E0911505E3
:1022A000F0911605208190911B05909592239083C3
:1022B0008C2F0E94FF10E0911505F091160590817A
:1022C00080911B05892B8083CF910895809109050A
:1022D00091E090932204809344041092230410927E
:1022E000450460E083EE94E00E94FD0C6C2F83EEC9
:1022F00094E00E94FD0CCF910C94A21090E0FC01A0
:10230000EC55FA4F2491FC01E057FA4F8491882351
:1023100099F090E0880F991FFC01EA57FA4FA591B8
:10232000B491FC01E458FA4F859194918FB7F894D9
:10233000EC91E22BEC938FBF0895EF92FF920F93F5
:102340001F93CF93DF93FC012481358161157105C3
:1023500011F480E019C041155105A9F07B01EC0191
:102360008A01020F131FB8010E947B10882389F392
:10237000288139818C819D81B701820F931F0E9432
:10238000031B1D830C8381E0DF91CF911F910F917F
:10239000FF90EF900895CF93DF93EC0188819981AE
:1023A000009711F00E949319198218821D821C82D5
:1023B0001B821A82DF91CF910895CF93DF93EC01B6
:1023C0006115710561F0FB0101900020E9F731977B
:1023D000AF01461B570B0E949D11811103C0CE0116
:1023E0000E94CB11CE01DF91CF910895EF92FF9221
:1023F0000F931F93CF93DF938C017B0161157105C0
:1024000069F0FB0101900020E9F73197EF01C61B4D
:10241000D70BBE010E947B10811104C0C8010E942D
:10242000CB1108C0F801D583C483B70180819181A5
:102430000E94031BC801DF91CF911F910F91FF9064
:10244000EF900895FC01808191810C949319EF9293
:10245000FF920F931F93CF93DF93CDB7DEB7A19772
:102460000FB6F894DEBF0FBECDBF7C01CB01BA0121
:10247000F70111821082138212821582148242E0C7
:10248000420F8E010F5F1F4F0E940A1BBC01C70144
:102490000E94F611A1960FB6F894DEBF0FBECDBF15
:1024A000DF91CF911F910F91FF90EF900895EF92E0
:1024B000FF920F931F93CF93DF93FC011182108241
:1024C00013821282158214828617970739F1DB0175
:1024D0000D911C9111970115110501F1EC01149654
:1024E000ED90FC901597B7010E947B10811109C0F7
:1024F000CE01DF91CF911F910F91FF90EF900C943F
:10250000CB11FD82EC82B80188819981DF91CF9156
:102510001F910F91FF90EF900C94031BDF91CF91CF
:102520001F910F91FF90EF9008956115710579F05B
:10253000FB0101900020E9F73197AF01461B570BD3
:10254000DC01ED91FC910280F381E02D099480E0A3
:1025500090E008950F931F93CF93DF93EC01E881F0
:10256000F981DB0114964D915C9115976D917C91E9
:102570000280F381E02D09958C0167E673E0CE01BE
:102580000E949512800F911FDF91CF911F910F91A3
:102590000895CF93DF93CDB7DEB7AE970FB6F8941B
:1025A000DEBF0FBECDBF789484B5826084BD84B594
:1025B000816084BD85B5826085BD85B5816085BD3E
:1025C00080916E00816080936E00109281008091F6
:1025D000810082608093810080918100816080937E
:1025E0008100809180008160809380008091B100A3
:1025F00084608093B1008091B00081608093B000CE
:1026000080917A00846080937A0080917A00826061
:1026100080937A0080917A00816080937A00809123
:102620007A00806880937A001092C100E09156048D
:10263000F091570492E09083E0915204F09153049A
:102640001082E0915404F09155048FEC8083109235
:102650005E04E0915A04F0915B0486E08083E0918F
:102660005804F0915904808180618083E09158047E
:10267000F0915904808188608083E0915804F09142
:102680005904808180688083E0915804F091590456
:1026900080818F7D808390930A058CE38093090568
:1026A00080910B058F3F09F4B6C080910D050E9403
:1026B0007E1180910F050E947E1180910F05082EDA
:1026C000000C990BFC01E057FA4FE491F0E0EE0F9B
:1026D000FF1FE458FA4F259134913093160520934B
:1026E0001505FC01EC55FA4FE491E0931B05809130
:1026F0000D05082E000C990BFC01E057FA4FE491F0
:10270000F0E0EE0FFF1FE458FA4F2591349130931B
:10271000180520931705FC01EC55FA4FE491E0935E
:102720001C058091100581113CC080910B050E9411
:102730007E1180910C050E947E1180910C05082E5F
:10274000000C990BFC01E057FA4FE491F0E0EE0F1A
:10275000FF1FE458FA4F25913491309314052093CC
:102760001305FC01EC55FA4FE491E0931A058091B2
:102770000B05082E000C990BFC01E057FA4FE49171
:10278000F0E0EE0FFF1FE458FA4F2591349130939B
:10279000120520931105FC01EC55FA4FE491E093EA
:1027A000190580911005882309F45CC01FB7F894BF
:1027B0008091E803811124C0EAE9F5E08491EEEA12
:1027C000F5E09491E82FF0E0EE0FFF1FEA57FA4F83
:1027D000A591B491EC91E92321F461E08AE00E9493
:1027E0002C0D8AE00E947E118CB580618CBD8CB569
:1027F00080648CBD8DE00E947E118BE00E947E1172
:102800008091E8038F5F8093E8031FBF80E58CBD54
:1028100081E08DBD27C01092E3031092E203109275
:102820002304109245041092210481E08093200437
:102830001092FB0361E082E10E942C0D61E083E1D4
:102840000E942C0D8091B9008E7F8093B9008091F9
:10285000B9008D7F8093B90088E48093B80085E447
:102860008093BC0080910E0587FD1DC00E947E11E3
:1028700061E080910E050E942C0D61E070E080E027
:1028800090E00E94780D60E080910E050E942C0D72
:102890006AE070E080E090E00E94780D61E0809155
:1028A0000E050E942C0D8EEA0E94351185ED0E94C6
:1028B000351180E80E94351188EA0E9435118FE1B8
:1028C0000E94351183ED0E94351180E00E94351180
:1028D00080E40E9435118DE80E94351184E10E9448
:1028E000351180E20E94351180E00E94351181EAA5
:1028F0000E94351188EC0E9435118AED0E94351135
:1029000082E00E94351181E80E9435118FE80E9413
:10291000351189ED0E94351181EF0E9435118BED43
:102920000E94351180E40E94351184EA0E9435111D
:1029300086EA0E9435118EE20E9435118FEA0E94CC
:10294000351190E4292E412C22E0522EAA24A39482
:10295000B12C332433944AE0842E912C54E1652E1B
:10296000712C2FB7F8948091E4039091E503A09126
:10297000E603B091E7032FBF8093F7039093F8032A
:10298000A093F903B093FA0320927C0080917A001F
:10299000806480937A0080917A0086FDFCCF6091FC
:1029A00078008091790070E0782B7093F603609343
:1029B000F503072E000C880B990B0E94D81D20E010
:1029C00030E040E85AE30E94371E20E030E44CE952
:1029D00055E40E94371E6093F1037093F2038093D5
:1029E000F3039093F40320E030E44CE155E40E94BB
:1029F000E41720E030E049E353E40E94511860936B
:102A0000ED037093EE038093EF039093F0038091B6
:102A1000F7039091F803A091F903B091FA03409164
:102A2000E9035091EA036091EB037091EC03841B7E
:102A3000950BA60BB70B843F9140A105B10508F497
:102A400011C2E0E0F1E0C20111920197E9F7B09202
:102A50000205A0920105B0920005A092FF043092F9
:102A600003051092FC041092FB041092FE041092D5
:102A7000FD046EE573E08FEE94E00E94951267E628
:102A800073E08FEE94E00E949512ECE3F0E0F09397
:102A9000FC04E093FB041092FE041092FD04C0902D
:102AA000F103D090F203E090F303F090F40320E000
:102AB00030E04AE754E4C701B6010E94D11D87FF08
:102AC00011C022E0B701A601CE0183960E94271211
:102AD000BE016D5D7F4FCE0101960E9457126AE6DE
:102AE00073E018C020E030E04AE754E4C701B601C3
:102AF0000E945118AB01BC0122E0CE0183960E94D6
:102B00002712BE016D5D7F4FCE0101960E945712C4
:102B10006EE673E0CE0101960E94DD11BC018FEEDE
:102B200094E00E94AA12CE0101960E942212CE01C8
:102B300083960E9422121092FC041092FB04909241
:102B4000FE048092FD0461E773E08FEE94E00E9442
:102B500095128CE390E09093FC048093FB04909298
:102B6000FE048092FD04C090ED03D090EE03E0904F
:102B7000EF03F090F00320E030E04AE754E4C701AF
:102B8000B6010E94D11D87FF11C022E0B701A60146
:102B9000CE0183960E942712BE016D5D7F4FCE014C
:102BA00001960E9457126CE773E022C020E030E0EB
:102BB0004AE754E4C701B6010E94F91887FD29C00D
:102BC00020E030E04AE754E4C701B6010E94511802
:102BD000AB01BC0122E0CE0183960E942712BE0108
:102BE0006D5D7F4FCE0101960E94571260E873E041
:102BF000CE0101960E94DD11BC018FEE94E00E948F
:102C0000AA12CE0101960E942212CE0183960E9442
:102C100022122091ED033091EE034091EF03509189
:102C2000F0036091F1037091F2038091F3039091AE
:102C3000F4030E94371E0E94C3186B017C0110929E
:102C4000FC041092FB047092FE046092FD0463E8A1
:102C500073E08FEE94E00E949512ECE3F0E0F093C5
:102C6000FC04E093FB047092FE046092FD041CA23D
:102C70001BA21EA21DA218A61FA22AE0AE014F5F32
:102C80005F4FC701B601F8EECF16F3E0DF06E104AF
:102C9000F1049CF40E942A1BBE016F5F7F4FCE019E
:102CA00083960E94F611BE016D5D7F4FCE010196A5
:102CB0000E9457126BE873E012C00E942A1BBE01EB
:102CC0006F5F7F4FCE0183960E94F611BE016D5D4E
:102CD0007F4FCE0101960E94571260E973E0CE014A
:102CE00001960E94DD11BC018FEE94E00E94AA12B1
:102CF000CE0101960E942212CE0183960E942212DA
:102D0000EE24E394F12C08E010E020E830E048E005
:102D100050E060E070E08FEE94E00E94D80600E2A0
:102D200010E027E330E040E050E067E370E08FEE32
:102D300094E00E94D80602E110E020E830E042E191
:102D400050E060E070E08FEE94E00E94D80681E2EF
:102D50000E94351180E00E9435118FE70E943511E5
:102D600082E20E94351180E00E94351183E00E94CA
:102D7000351180910B058F3F89F1E0911505F09198
:102D80001605908180911B05892B8083E0911705A2
:102D9000F0911805908180911C05892B8083E0912A
:102DA0001505F0911605908180911B05809589236A
:102DB000808300E011E0F80181918F010E94FF10F3
:102DC000F3E000301F07B9F7E0911505F091160503
:102DD000908180911B05892B808331C0D090B800F1
:102DE0008CE08093B80000E011E0809109053092FA
:102DF000220480934404109223041092450460E45A
:102E000083EE94E00E94FD0CE12CF12CF801EE0D14
:102E1000FF1D608183EE94E00E94FD0C2FEFE21A0B
:102E2000F20A80E1E816F10489F70E94A210005F1F
:102E30001F4F93E000301907C1F6D092B8002FB7AA
:102E4000F8948091E4039091E503A091E603B0919A
:102E5000E7032FBF8093E9039093EA03A093EB036A
:102E6000B093EC034091ED035091EE036091EF03BA
:102E70007091F00322E0CE0101960E94271240914A
:102E8000F1035091F2036091F3037091F40322E097
:102E9000CE0189960E942712BE01675D7F4FCE0149
:102EA00083960E94571264E973E0CE0183960E94D4
:102EB000DD118C014D815E8169817A810E949D11B5
:102EC000811103C0C8010E94CB11B80186E494E0CF
:102ED0000E94AA12CE0183960E942212CE018996E8
:102EE0000E942212CE0101960E9422120E94EC0F33
:102EF00038CDE6E4F4E01382128288EE93E0A0E09D
:102F0000B0E084839583A683B7832AE133E03183DD
:102F1000208325EC30E03587248724EC30E03787A8
:102F2000268720EC30E0318B208B21EC30E0338B96
:102F3000228B22EC30E0358B248B26EC30E0378B73
:102F4000268B118E128E138E148EE3EEF4E0138214
:102F5000128284839583A683B7838AE293E0918368
:102F60008083EFEEF4E01382128220E830E03583B4
:102F7000248380E290E0978386833187208793873C
:102F80008287158A158614861786168681E0848BBB
:102F90002FEF3FEF338B228B318B208B868B178A61
:102FA000118E108E8AE393E0918380838FEF848F5C
:102FB00080A3868F858F84E0878F0895EE0FFF1F93
:102FC0000590F491E02D09945058BB27AA270E9440
:102FD000FC170C94BB1E0E94AD1E38F00E94B41E5C
:102FE00020F039F49F3F19F426F40C94AA1E0EF435
:102FF000E095E7FB0C94A41EE92F0E94CC1E58F329
:10300000BA17620773078407950720F079F4A6F5CD
:103010000C94EE1E0EF4E0950B2EBA2FA02D0B0192
:10302000B90190010C01CA01A0011124FF27591B0D
:1030300099F0593F50F4503E68F11A16F040A22F13
:10304000232F342F4427585FF3CF46953795279584
:10305000A795F0405395C9F77EF41F16BA0B620B83
:10306000730B840BBAF09150A1F0FF0FBB1F661FCA
:10307000771F881FC2F70EC0BA0F621F731F841F0D
:1030800048F4879577956795B795F7959E3F08F033
:10309000B0CF9395880F08F09927EE0F97958795F5
:1030A00008950E9465180C94BB1E0E94B41E58F02F
:1030B0000E94AD1E40F029F45F3F29F00C94A41E3D
:1030C00051110C94EF1E0C94AA1E0E94CC1E68F3A2
:1030D0009923B1F3552391F3951B550BBB27AA27D1
:1030E00062177307840738F09F5F5F4F220F331F0B
:1030F000441FAA1FA9F335D00E2E3AF0E0E832D0D3
:1031000091505040E695001CCAF72BD0FE2F29D0D5
:10311000660F771F881FBB1F261737074807AB07A7
:10312000B0E809F0BB0B802DBF01FF2793585F4F1C
:103130003AF09E3F510578F00C94A41E0C94EF1EBB
:103140005F3FE4F3983ED4F3869577956795B795FE
:10315000F7959F5FC9F7880F911D9695879597F909
:103160000895E1E0660F771F881FBB1F6217730782
:103170008407BA0720F0621B730B840BBA0BEE1F97
:1031800088F7E09508950E94CA186894B1110C94CC
:10319000EF1E08950E94D41E88F09F5798F0B92F13
:1031A0009927B751B0F0E1F0660F771F881F991F7C
:1031B0001AF0BA95C9F714C0B13091F00E94EE1E12
:1031C000B1E008950C94EE1E672F782F8827B85F22
:1031D00039F0B93FCCF3869577956795B395D9F7D4
:1031E0003EF490958095709561957F4F8F4F9F4FDE
:1031F00008950E94131E08F48FEF0895CF93DF9374
:103200008230910510F482E090E0E0911F05F0918A
:10321000200520E030E0C0E0D0E0309711F140819F
:10322000518148175907C0F04817590761F4828146
:103230009381209719F09B838A832BC0909320055C
:1032400080931F0526C02115310519F04217530739
:1032500018F49A01BE01DF01EF010280F381E02D35
:10326000DCCF2115310509F1281B390B243031053C
:1032700090F412968D919C9113976115710521F030
:10328000FB019383828304C09093200580931F05E4
:10329000FD01329644C0FD01E20FF31F819391932B
:1032A000225031092D933C933AC020911D05309155
:1032B0001E05232B41F42091020330910303309328
:1032C0001E0520931D052091000330910103211557
:1032D000310541F42DB73EB74091040350910503E9
:1032E000241B350BE0911D05F0911E05E217F30735
:1032F000A0F42E1B3F0B2817390778F0AC014E5F66
:103300005F4F2417350748F04E0F5F1F50931E057F
:1033100040931D058193919302C0E0E0F0E0CF015E
:10332000DF91CF9108950F931F93CF93DF93009771
:1033300009F48CC0FC0132971382128200911F05A0
:10334000109120050115110581F420813181820F32
:10335000931F20911D0530911E052817390779F517
:10336000F0931E05E0931D0571C0D80140E050E0C8
:10337000AE17BF0750F412962D913C911397AD01F3
:103380002115310509F1D901F3CF9D01DA0133830C
:10339000228360817181860F971F8217930769F4DA
:1033A000EC0128813981260F371F2E5F3F4F318373
:1033B00020838A819B8193838283452B29F4F09318
:1033C0002005E0931F0542C01396FC93EE931297DD
:1033D000ED01499159919E01240F351FE217F30722
:1033E00071F480819181840F951F029611969C93B0
:1033F0008E938281938113969C938E931297E0E033
:10340000F0E0D80112968D919C911397009719F0D6
:10341000F8018C01F6CF8D919C9198012E5F3F4F62
:10342000820F931F20911D0530911E052817390723
:1034300069F4309729F41092200510921F0502C0FC
:103440001382128210931E0500931D05DF91CF9108
:103450001F910F910895A0E0B0E0E1E3FAE10C9430
:10346000F91EEC01009721F4CB010E94FE18B8C0B0
:10347000FC01E60FF71F9C0122503109E217F30708
:1034800008F4ACC0D9010D911C91119706171707CC
:10349000B0F00530110508F49FC0C80104978617E5
:1034A000970708F499C002501109061B170B0193E6
:1034B00011936D937C93CF010E9493198DC05B0192
:1034C000A01AB10A4C01800E911EA0911F05B09167
:1034D000200540E050E0E12CF12C109709F44AC09F
:1034E000A815B905D1F56D907C901197630182E024
:1034F000C80ED11CCA14DB0480F1A3014A195B0970
:103500006A0182E0C80ED11C1296BC9012971396E5
:10351000AC91B5E0CB16D10440F0B282A3835183C5
:103520004083D9016D937C930AC00E5F1F4FC30186
:10353000800F911FF90191838083EB2DFA2FE11405
:10354000F10431F0D7011396FC93EE93129744C027
:10355000F0932005E0931F053FC08D919C9111973A
:103560004817590708F4AC017D0112960D90BC91E3
:10357000A02DB3CF80911D0590911E05881599054A
:10358000E1F446175707C8F48091000390910103B6
:10359000009741F48DB79EB7409104035091050305
:1035A000841B950BE817F907C8F4F0931E05E09308
:1035B0001D05F901718360830FC0CB010E94FE18C5
:1035C0007C01009759F0A801BE010E94FA1ACE01B1
:1035D0000E949319C70104C0CE0102C080E090E0B0
:1035E000CDB7DEB7EEE00C94151F81E090E0F894C3
:1035F0000C942C1FFB01DC0102C001900D92415084
:103600005040D8F70895FB01DC0101900D92002095
:10361000E1F70895EF920F931F93CF93DF93E801A3
:1036200047FD02C034E001C034E1E42F440FFF0B3A
:10363000F7FF03C0F195E195F109E32E022F2E2F3C
:10364000AE010E945B1BCE01DF91CF911F910F91C4
:10365000EF900895BB272A3051F4992342F4BDE23C
:1036600090958095709561957F4F8F4F9F4F0C94EB
:103670003A1BBB27FA01A62F621771058105910538
:10368000330B30FB66F0AA27660F771F881F991F40
:10369000AA1FA21710F0A21B63953850A9F7A05DCE
:1036A000AA3308F0A95DA19336F7B111B193108246
:1036B000CA010C94C11D4F925F926F927F929F92AC
:1036C000AF92BF92CF92DF92EF92FF920F931F9330
:1036D000CF93DF93CDB7DEB729970FB6F894DEBF4F
:1036E0000FBECDBF6A01122FB02E2BE3201720F0A2
:1036F000FF24F394F00E02C0BCE3FB2E0F2D27E055
:10370000AE014F5F5F4F0E94E91CAC018981982F89
:103710009970913031F0E1FC06C0E0FE06C090E205
:1037200005C09DE203C09BE201C090E0EE2DE07178
:1037300083FF3CC0911102C083E001C084E0811787
:1037400018F4212F281B01C020E0E1110BC0F60165
:10375000822F30E2882319F031938150FBCFC20EC3
:10376000D11C20E0992329F0D6019C93F6013196D3
:103770006F01C6010396E2FE0AC03EE4D6013C9307
:1037800041E411964C93119712963C9306C03EE685
:10379000F601308341E641833283FC01322F40E25F
:1037A000332309F442C041933150FACF82FF44C021
:1037B000911102C083E001C084E0811718F4212F29
:1037C000281B01C020E0E1110BC0F601822F30E27E
:1037D000882319F031938150FBCFC20ED11C20E019
:1037E000992329F0D6019C93F60131966F01C60109
:1037F0000396E2FE0BC039E4D6013C933EE41196F9
:103800003C93119736E412963C9307C039E6F601D3
:1038100030833EE6318336E63283FC01322F40E2CC
:10382000332319F041933150FBCFFC01E20FF11D1E
:1038300010828EEF9FEFB7C0F1E0911101C0F0E070
:103840006F2F70E01416150624F49A012F5F3F4F76
:1038500002C021E030E0260F371FBB2029F06B2D7E
:1038600070E06F5F7F4F02C060E070E0260F371F8F
:10387000612F70E0261737071CF4121B212F01C09F
:1038800020E03E2D387159F4D601322F60E2332307
:1038900019F06D933150FBCFC20ED11C20E0FF23F5
:1038A00031F0D6019C93B6016F5F7F4F6B01E11140
:1038B0000BC0F601922F30E3992319F03193915008
:1038C000FBCFC20ED11C20E09F2D940F3A81782FA0
:1038D0007071A72E84FF03C0313309F4915019167B
:1038E00024F4993018F098E001C091E0E42F852F7E
:1038F00057FF02C0E0E080E06E2F782FE0E0F0E0BC
:10390000AEE29A2E3A01691A71082A01461A570A3C
:103910000B2D10E01195019511096F3F8FEF78077E
:1039200029F4D6019C92C60101966C0146175707EF
:1039300084F0661677066CF47F01E40CF51CA1E0B8
:10394000B0E0AC0FBD1FEA0EFB1ED7011196BC9074
:1039500002C090E3B92E615071093196C6010196FB
:103960007C016017710724F0D601BC926C01D5CFA1
:103970006417750741F4363320F4353321F4A11070
:1039800002C081E3B82EF601B082F701822F90E2E7
:10399000882319F091938150FBCFF701E20FF11DBD
:1039A000108280E090E029960FB6F894DEBF0FBE3B
:1039B000CDBFDF91CF911F910F91FF90EF90DF90DE
:1039C000CF90BF90AF909F907F906F905F904F90FF
:1039D0000895283008F027E03327DA01990F311DC8
:1039E00087FD916000966105710539F432602E5FA4
:1039F0003D9330E32A95E1F708959F3F30F08038FA
:103A00007105610509F03C5F3C5F3D93913008F022
:103A10008068911DDF93CF931F930F93FF92EF92D6
:103A2000192F987F9695E92F96959695E90FFF2780
:103A3000EE5EF94F99273327EE24FF24A701E70113
:103A400005900894079428F4360FE71EF81E491FC6
:103A5000511D660F771F881F991F0694A1F70590C7
:103A6000079428F4E70EF81E491F561FC11D770F53
:103A7000881F991F661F0694A1F70590079428F4E4
:103A8000F80E491F561FC71FD11D880F991F661FAB
:103A9000771F0694A1F70590079420F4490F561F4D
:103AA000C71FD81F990F661F771F881F0694A9F795
:103AB00084911095177041F0D695C7955795479505
:103AC000F794E7941A95C1F7E8EBF5E06894159040
:103AD000159135916591959105907FE27395E11867
:103AE000F10A430B560BC90BD009C0F7E10CF11ECC
:103AF000431F561FC91FD01D7EF4703311F48A95E1
:103B0000E6CFE894015030F0080F0AF400270217BE
:103B100008F4202F2395022F7A3328F079E37D9340
:103B20002A95E9F710C07D932A9589F60694979512
:103B30006795379517951794E118F10A430B560BC3
:103B4000C90BD00998F023957E9173957A3308F0CC
:103B500070E37C932013B8F77E9170617D9330F011
:103B6000839571E37D9370E32A95E1F71124EF903B
:103B7000FF900F911F91CF91DF91992787FD90952D
:103B80000895DC01FC01672F71917723E1F73297EB
:103B900004C07C916D9370836291AE17BF07C8F328
:103BA00008950E94131E08F481E00895E89409C066
:103BB00097FB3EF490958095709561957F4F8F4F60
:103BC0009F4F9923A9F0F92F96E9BB279395F69576
:103BD000879577956795B795F111F8CFFAF4BB0FF4
:103BE00011F460FF1BC06F5F7F4F8F4F9F4F16C058
:103BF000882311F096E911C0772321F09EE8872FE2
:103C0000762F05C0662371F096E8862F70E060E09D
:103C10002AF09A95660F771F881FDAF7880F969516
:103C2000879597F90895990F0008550FAA0BE0E8BA
:103C3000FEEF16161706E807F907C0F0121613066E
:103C4000E407F50798F0621B730B840B950B39F4AE
:103C50000A2661F0232B242B252B21F408950A2614
:103C600009F4A140A6958FEF811D811D08950E9442
:103C70004A1E0C94BB1E0E94AD1E38F00E94B41E5A
:103C800020F0952311F00C94A41E0C94AA1E11246C
:103C90000C94EF1E0E94CC1E70F3959FC1F3950FFC
:103CA00050E0551F629FF001729FBB27F00DB11DC0
:103CB000639FAA27F00DB11DAA1F649F6627B00D50
:103CC000A11D661F829F2227B00DA11D621F739F39
:103CD000B00DA11D621F839FA00D611D221F749F47
:103CE0003327A00D611D231F849F600D211D822F8E
:103CF000762F6A2F11249F5750409AF0F1F08823B5
:103D00004AF0EE0FFF1FBB1F661F771F881F9150E1
:103D10005040A9F79E3F510580F00C94A41E0C94CE
:103D2000EF1E5F3FE4F3983ED4F386957795679551
:103D3000B795F795E7959F5FC1F7FE2B880F911D0B
:103D40009695879597F9089597F99F6780E870E0B1
:103D500060E008959FEF80EC089500240A94161601
:103D6000170618060906089500240A941216130669
:103D7000140605060895092E0394000C11F48823F7
:103D800052F0BB0F40F4BF2B11F460FF04C06F5F13
:103D90007F4F8F4F9F4F089557FD9058440F551FE9
:103DA00059F05F3F71F04795880F97FB991F61F0BD
:103DB0009F3F79F087950895121613061406551F34
:103DC000F2CF4695F1DF08C0161617061806991FA0
:103DD000F1CF86957105610508940895E894BB2795
:103DE00066277727CB0197F908952F923F924F923C
:103DF0005F926F927F928F929F92AF92BF92CF927B
:103E0000DF92EF92FF920F931F93CF93DF93CDB783
:103E1000DEB7CA1BDB0B0FB6F894DEBF0FBECDBFFB
:103E200009942A88398848885F846E847D848C84CC
:103E30009B84AA84B984C884DF80EE80FD800C81D5
:103E40001B81AA81B981CE0FD11D0FB6F894DEBFB8
:0C3E50000FBECDBFED010895F894FFCF28
:103E5C000000000000000000000000000000000056
:103E6C000000000000000000000000000000000046
:103E7C000000000000000000000000000000000036
:103E8C0000000000000000000000000000000080A6
:103E9C008080000000000000000000000000000016
:103EAC00008080C0C0000000000000000000000086
:103EBC0000000000000000000000000000000000F6
:103ECC0000000000000000000000000000000000E6
:103EDC0000000000000000000000000000000000D6
:103EEC000000000080C0E0F0F8FCF8E000000000EA
:103EFC000000000000000000000000000080808036
:103F0C00808000808000000000808080808000FF26
:103F1C00FFFF000000008080808000008080000097
:103F2C0080FFFF8080008080008080808000808007
:103F3C000000000000808000008C8E84000080F85F
:103F4C00F8F88000000000000000000000000000F5
:103F5C00F0F0F0F0F0F0F0F0F0F0F0F0E0E0C08015
:103F6C0000E0FCFEFFFFFF7FFFFFFFFFFF000000F4
:103F7C000000000000000000000000FEFFC701016F
:103F8C00010183FFFF00007CFEC70101010183FFDB
:103F9C00FFFF0038FEC78301010183C7FFFF00004C
:103FAC0001FFFF010100FFFF0701010100007FFF7E
:103FBC0080000000FFFF7F0000FFFFFF000001FFFB
:103FCC00FFFF0100000000000000000000000000E6
:103FDC00030F3F7F7FFFFFFFFFFFFFFFE7C7C78F89
:103FEC008F9FBFFFFFC3C0F0FFFFFFFFFFFCFCFC78
:103FFC00FCFCFCFCFCF8F8F0F0E0C000010303034F
:10400C000303010303000000000103030303010188
:10401C00030100000001030303030101030300007B
:10402C000003030000000303000000000000000177
:10403C00030303030301000000010301000000035C
:10404C000301000000000000000000000000000060
:10405C00000021058000000103070F1F3F7F008037
:10406C00C0E0F0F8FCFE00000000830F50104C0F75
:10407C002A0F3E0FCA0F00000000FD0CCD0CC50C22
:10408C00B60CA80CA70C00000000A2055010D70B12
:10409C0076086F0847086308570877084608AA038C
:1040AC00A90321097B0A6D074F07D80679065465C9
:1040BC006E73616F3A20000D0A00206D5600205679
:1040CC0000436F7272656E74653A2000206D41007A
:1040DC0020410057617474733A200020206D570002
:0640EC00202057002F0008
:107800000C94343C0C94513C0C94513C0C94513CE1
:107810000C94513C0C94513C0C94513C0C94513CB4
:107820000C94513C0C94513C0C94513C0C94513CA4
:107830000C94513C0C94513C0C94513C0C94513C94
:107840000C94513C0C94513C0C94513C0C94513C84
:107850000C94513C0C94513C0C94513C0C94513C74
:107860000C94513C0C94513C11241FBECFEFD8E036
:10787000DEBFCDBF11E0A0E0B1E0ECE9FFE702C060
:1078800005900D92A230B107D9F712E0A2E0B1E065
:1078900001C01D92AD30B107E1F70E942D3D0C945F
:1078A000CC3F0C94003C982F959595959595959582
:1078B000905D8F708A307CF0282F295A8091C0000B
:1078C00085FFFCCF9093C6008091C00085FFFCCF60
:1078D0002093C6000895282F205DF0CF982F809127
:1078E000C00085FFFCCF9093C6000895EF92FF92F1
:1078F0000F931F93EE24FF2487018091C00087FD22
:1079000017C00894E11CF11C011D111D81E4E8164B
:1079100082E4F8068FE0080780E0180770F3E09132
:107920000401F091050109958091C00087FFE9CF1E
:107930008091C6001F910F91FF90EF9008950E94D3
:10794000763C982F8091C00085FFFCCF9093C600B5
:1079500091362CF490330CF09053892F089597555D
:10796000892F08951F930E949F3C182F0E949F3CCF
:107970001295107F810F1F9108951F93182F882350
:1079800021F00E94763C1150E1F71F9108951F935A
:10799000182F0E94763C803249F0809103018F5F5E
:1079A000809303018530C1F01F9108958091C0003C
:1079B00085FFFCCF84E18093C6008091C00085FFE5
:1079C000FCCF1093C6008091C00085FFFCCF80E102
:1079D0008093C6001F910895E0910401F091050184
:1079E00009951F9108950E94763C803241F0809164
:1079F00003018F5F80930301853081F008958091AA
:107A0000C00085FFFCCF84E18093C6008091C00058
:107A100085FFFCCF80E18093C6000895E0910401CA
:107A2000F09105010995089540E951E08823A1F0FE
:107A30002D9A28EE33E0FA013197F1F721503040CA
:107A4000D1F72D9828EE33E0FA013197F1F7215064
:107A50003040D1F7815061F708953F924F925F9285
:107A60006F927F928F929F92AF92BF92CF92DF924E
:107A7000EF92FF920F931F93CF93DF93000080E16B
:107A80008093C4001092C50088E18093C10086E015
:107A90008093C2005098589A259A81E00E94143D24
:107AA00024E1F22E9EE1E92E85E9D82E0FE0C02ECA
:107AB00010E1B12EAA24A394B1E49B2EA6E58A2E50
:107AC000F2E57F2EE0E26E2E79E4572E63E5462E36
:107AD00050E5352E0E94763C8033B1F18133B9F107
:107AE000803409F46FC0813409F476C0823409F41B
:107AF00085C0853409F488C0803531F1823521F1A3
:107B0000813511F1853509F485C0863509F48DC0BC
:107B1000843609F496C0843709F403C1853709F423
:107B200072C1863709F466C0809103018F5F80932C
:107B30000301853079F6E0910401F0910501099582
:107B40000E94763C803351F60E94F33CC3CF0E94E2
:107B5000763C803249F78091C00085FFFCCFF092DF
:107B6000C6008091C00085FFFCCF9092C600809136
:107B7000C00085FFFCCF8092C6008091C00085FFC9
:107B8000FCCF7092C6008091C00085FFFCCF609250
:107B9000C6008091C00085FFFCCF5092C600809146
:107BA000C00085FFFCCF4092C6008091C00085FFD9
:107BB000FCCF3092C6008091C00085FFFCCFB09210
:107BC000C60088CF0E94763C863808F4BDCF0E945C
:107BD000763C0E94F33C7ECF0E94763C803809F4CC
:107BE0009CC0813809F40BC1823809F43CC1883942
:107BF00009F48FC080E00E94C73C6CCF84E10E94F2
:107C0000BD3C0E94F33C66CF85E00E94BD3C0E94D3
:107C1000F33C60CF0E94763C809306010E94763C44
:107C2000809307010E94F33C55CF0E94763C80333D
:107C300009F41DC183E00E94BD3C80E00E94C73C66
:107C400049CF0E94763C809309020E94763C809343
:107C5000080280910C028E7F80930C020E94763C79
:107C6000853409F415C18091080290910902892B8D
:107C700089F000E010E00E94763CF801E85FFE4FDA
:107C800080830F5F1F4F80910802909109020817AF
:107C9000190788F30E94763C803209F045CF809125
:107CA0000C0280FF01C16091060170910701660F0F
:107CB000771F7093070160930601A0910802B091AD
:107CC00009021097C9F0E8E0F1E09B01AD014E0F09
:107CD0005F1FF999FECF32BD21BD819180BDFA9A17
:107CE000F99A2F5F3F4FE417F50799F76A0F7B1F4B
:107CF00070930701609306018091C00085FFFCCF5F
:107D0000F092C6008091C00085FFFCCFB092C60003
:107D1000E1CE83E00E94C73CDDCE82E00E94C73CFA
:107D2000D9CE0E94763C809309020E94763C8093D3
:107D300008028091060190910701880F991F909386
:107D40000701809306010E94763C853409F4A6C0A1
:107D500080910C028E7F80930C020E94763C8032D0
:107D600009F0B8CE8091C00085FFFCCFF092C6002C
:107D7000609108027091090261157105B9F140E046
:107D800050E080910C02A82FA170B82FB27011C0E2
:107D9000BB2309F45CC0E0910601F0910701319624
:107DA000F0930701E09306014F5F5F4F46175707B7
:107DB000E8F4AA2369F3F999FECF209106013091E6
:107DC000070132BD21BDF89A90B58091C00085FFB2
:107DD000FCCF9093C6002F5F3F4F30930701209355
:107DE00006014F5F5F4F4617570718F38091C00099
:107DF00085FDE5CE8091C00085FFF8CFE0CE81E023
:107E00000E94C73C67CE0E94763C803209F08CCE3F
:107E10008091C00085FFFCCFF092C6008091C00029
:107E200085FFFCCFE092C6008091C00085FFFCCFAB
:107E3000D092C6008091C00085FFFCCFC092C600E2
:107E40008091C00085FFFCCFB092C60043CEE09188
:107E50000601F091070194918091C00085FFFCCF4D
:107E60009093C6009CCF80E10E94C73C33CE0E9415
:107E7000763C0E94763C182F0E94763C112309F430
:107E800083C0113009F484C08FE00E94C73C22CE29
:107E900080910C02816080930C02E5CE80910C02EF
:107EA000816080930C0259CF809107018823880F4D
:107EB000880B8A2180930B02809106019091070123
:107EC000880F991F90930701809306018091080203
:107ED00080FF09C080910802909109020196909359
:107EE000090280930802F894F999FECF1127E091D6
:107EF0000601F0910701C8E0D1E08091080290915D
:107F00000902103091F40091570001700130D9F34B
:107F100003E000935700E89500915700017001308D
:107F2000D9F301E100935700E89509901990009169
:107F3000570001700130D9F301E000935700E89534
:107F40001395103498F011270091570001700130FB
:107F5000D9F305E000935700E895009157000170B0
:107F60000130D9F301E100935700E895329602976A
:107F700009F0C7CF103011F00296E5CF112480919F
:107F8000C00085FFB9CEBCCE8EE10E94C73CA2CD19
:0C7F900085E90E94C73C9ECDF894FFCF0D
:027F9C00800063
:040000030000780081
:00000001FF